0A-3396-0094281                            000000000000000000000000000000APSEN FARMACEUTICA                                         010220232501202399991100   06246201500012920230301202302152023012000000  00000000                                                                                                                                                                                           
1A-3396-0094281     4491370500008672000                       APSEN FARMACEUTICA            RUA BARAO DO RIO BRANCO                 835                 SAO PAULO                   SP04753 00162462015000129              00000000000000000000000000000000000000000000000000000000000000                         +00000000000000000+00000000000000000000000000000000000000002012032820280331                   
1A-3396-0094281     449137993235979300000754135               FABIO DE MORAES VIANNA        RUA BARAO DO RIO BRANCO                 835                 SAO PAULO                   SP04753 00118479694882                 000000000000000000000000000000001500000000000000202803000000003511                     +00000000000000000+00000000000001400000018479694882000000002012032820280331PC   000EVVCG301   
2A-3396-0094281     44913799323597930002485085302424453620899306092023012400000000000000140000000000001400020230301BRLSAO PAULO      PAG*HeloPark                                                          07299ZAPARTAMENTOS, PREDIOS         R$ D                          0000000000000               SAO PAULO        00000000000010074215               SAO PAULO         00000000BR 050020230125642519    
1A-3396-0094281     449137993240622200000754135               PAULO GUILHERME SKORA CARLOS DRUA BARAO DO RIO BRANCO                 835                 SAO PAULO                   SP04753 00111148722700                 000000000000000000000000000000004200000000000000202805000000003524                     +00000000000000000+00000000000001600000011148722700000000002012051620280531PC   000EVVCG301   
2A-3396-0094281     44913799324062220002489427302424521133905106092023012400000000000000160000000000001600020230301BRLRIO DE JANEIR  MULTIPLAN ADMINISTRADO                                                07523ZESTACIONAMENTO DE AUTOMOVEIS  R$ D                          0000000000000               RIO DE JANEIR    00000000000000000000               RIO DE JANEIR     00000000BR 050020230125680051    
1A-3396-0094281     449137993240626300000754135               CAMILA AVELAR PALHARES        RUA BARAO DO RIO BRANCO                 835                 SAO PAULO                   SP04753 00106865776631                 000000000000000000000000000000001500000000000000202806000000003528                     +00000000000000000+00000000000002850000006865776631000000002012051620280630PC   000EVVCG301   
2A-3396-0094281     44913799324062630002489427302424520984751106092023012400000000000000035000000000000350020230301BRLBELO HORIZONT  ESTAPAR HOSP C E MEDIC                                                07523ZESTACIONAMENTO DE AUTOMOVEIS  R$ D                          0000000000000               BELO HORIZONT    00000000000000000000               BELO HORIZONT     00000000BR 050020230125601857    
2A-3396-0094281     44913799324062630002489427302424519877659806092023012400000000000000250000000000002500020230301BRLBELO HORIZONT  SUPERMERCADO E PADARIA                                                05411ZSUPERMERCADOS                 R$ D                          0000000000000               BELO HORIZONT    00000000000000000000               BELO HORIZONT     00000000BR 050020230125672523    
1A-3396-0094281     449137993240631300000754135               GRAZIELA GUIMARAES PACHE DE FARUA BARAO DO RIO BRANCO                 835                 SAO PAULO                   SP04753 00108201661702                 000000000000000000000000000000001500000000000000202805000000003533                     +00000000000000000+00000000000003900000008201661702000000002012051620280531PC   000EVVCG301   
2A-3396-0094281     44913799324063130002448768302441800749532906092023012400000000000000040000000000000400020230301BRLNITEROI        NITEROI ROTATIVO                             03072248000156           07523ZESTACIONAMENTO DE AUTOMOVEIS  R$ D                          0000000000000               NITEROI          00000000000010037169               NITEROI           00000000BR 050020230125651673    
2A-3396-0094281     44913799324063130002489427302424522817139806092023012400000000000000350000000000003500020230301BRLNITEROI        SAFETY PARK ESTACIONAM                                                07523ZESTACIONAMENTO DE AUTOMOVEIS  R$ D                          0000000000000               NITEROI          00000000000000000000               NITEROI           00000000BR 050020230125655933    
1A-3396-0094281     449137993240709700000754135               CLAUDIA FIGUEIREDO LOUREIRO PIRUA BARAO DO RIO BRANCO                 835                 SAO PAULO                   SP04753 00104282927712                 000000000000000000000000000000001500000000000000202805000000003560                     +00000000000000000+00000000000003800000004282927712000000002012051620280531PC   000EVVCG301   
2A-3396-0094281     44913799324070970002489427302424521823059206092023012400000000000000380000000000003800020230301BRLRIO DE JANEIR  ESTAPAR BRAD BOTAFOGO                                                 07523ZESTACIONAMENTO DE AUTOMOVEIS  R$ D                          0000000000000               RIO DE JANEIR    00000000000000000000               RIO DE JANEIR     00000000BR 050020230125632647    
1A-3396-0094281     449137993242044700000754135               FERNANDA RAFAELLA DE OLIVEIRA RUA BARAO DO RIO BRANCO                 835                 SAO PAULO                   SP04753 00135824400873                 000000000000000000000000000000001500000000000000202807000000003579                     +00000000000000000+00000000000001500000035824400873000000002012053120280731PC   000EVVCG301   
2A-3396-0094281     44913799324204470002483044302400021254512306092023012400000000000000150000000000001500020230301BRLSAO PAULO      LI YANCHI E CIA                                                       07523ZESTACIONAMENTO DE AUTOMOVEIS  R$ D                          0000000000000               SAO PAULO        00000000000010068372               SAO PAULO         00000000BR 050020230125663246    
1A-3396-0094281     449137993242047000000754135               ANDREIA AURELIO MOURAO        LARGO DO AROUCHE                        109  APTO 306 307   SAO PAULO                   SP01219 01028951729869                 000000000000000000000000000000001500000000000000202807000000003584                     +00000000000000000+00000000000003500000028951729869000000002012053120280731PC   000EVVCG301   
2A-3396-0094281     44913799324204700002483044302400026528408306092023012400000000000000350000000000003500020230301BRLSAO PAULO      A C PARKING                                                           07523ZESTACIONAMENTO DE AUTOMOVEIS  R$ D                          0000000000000               SAO PAULO        00000000000010068372               SAO PAULO         00000000BR 050020230125680731    
1A-3396-0094281     449137993247453500000754135               LUCAS OLIVEIRA DE MEDEIROS    RUA BARAO DO RIO BRANCO                 835                 SAO PAULO                   SP04753 00106736151465                 000000000000000000000000000000001500000000000000202807000000003611                     +00000000000000000+00000000000001600000006736151465000000002012071320280731PC   000EVVCG301   
2A-3396-0094281     44913799324745350002456063302430353625944306092023012400000000000000080000000000000800020230301BRLNATAL          PHPG SERVICOS MEDICOS                                                 08062ZOUTROS                        R$ D                          0000000000000               NATAL            00000000000000000000               NATAL             00000000BR 050020230125601823    
2A-3396-0094281     44913799324745350002456063302430352941763606092023012400000000000000080000000000000800020230301BRLNATAL          PHPG SERVICOS MEDICOS                                                 08062ZOUTROS                        R$ D                          0000000000000               NATAL            00000000000000000000               NATAL             00000000BR 050020230125694675    
1A-3396-0094281     449137993249660300000754135               LUIZ FERNANDES VERISSIMO LOPESRUA BARAO DO RIO BRANCO                 835                 SAO PAULO                   SP04753 00180897916468                 000000000000000000000000000000001500000000000000202809000000003626                     +00000000000000000+00000000000020000000080897916468000000002012080220280930PC   000EVVCG301   
2A-3396-0094281     44913799324966030002489427302424517587179206092023012400000000000001500000000000015000020230301BRLGUARABIRA      SANTOS SERVICOS DE HOT                                                07011DHOTEIS,POUSADAS ETC           R$ D                          0000000000000               GUARABIRA        00000000000000000000               GUARABIRA         00000000BR 050020230125613986    
2A-3396-0094281     44913799324966030002489427302424517587211306092023012400000000000000500000000000005000020230301BRLGUARABIRA      SANTOS SERVICOS DE HOT                                                07011DHOTEIS,POUSADAS ETC           R$ D                          0000000000000               GUARABIRA        00000000000000000000               GUARABIRA         00000000BR 050020230125624313    
1A-3396-0094281     449137993256019200000754135               LIDIANE LEITE DA SILVA RIBEIRORUA BARAO DO RIO BRANCO                 835                 SAO PAULO                   SP04753 00122359104837                 000000000000000000000000000000001500000000000000202808000000003653                     +00000000000000000+00000000000005000000022359104837000000002012082020280831PC   000EVVCG301   
2A-3396-0094281     44913799325601920002489427302424524484786406092023012400000000000000500000000000005000020230301BRLSAO PAULO      ESTAPAR COL SAO LUIS                                                  07523ZESTACIONAMENTO DE AUTOMOVEIS  R$ D                          0000000000000               SAO PAULO        00000000000000000000               SAO PAULO         00000000BR 050020230125690116    
1A-3396-0094281     449137993256024200000754135               ALESSANDRO LUIZ PATRICIO      RUA BARAO DO RIO BRANCO                 835                 SAO PAULO                   SP04753 00102307165983                 000000000000000000000000000000001500000000000000202808000000003658                     +00000000000000000+00000000000001750000002307165983000000002012082020280831PC   000EVVCG301   
2A-3396-0094281     44913799325602420002485085302424448809143906092023012400000000000000175000000000001750020230301BRLITAJAI         PAG*PapelariaE                                                        05943HPAPELARIAS,LOJAS DE MATERIAL ER$ D                          0000000000000               ITAJAI           00000000000010074215               ITAJAI            00000000BR 050020230125653501    
1A-3396-0094281     449137993266232900000754135               GILSON DE AZEVEDO FRADE BERNARRUA BARAO DO RIO BRANCO                 835                 SAO PAULO                   SP04753 00102206215357                 000000000000000000000000000000001500000000000000202711000000003689                     +00000000000000000+00000000000001400000002206215357000000002012102620271130PC   000EVVCG301   
2A-3396-0094281     44913799326623290002419895302423122273322706092023012400000000000000140000000000001400020230301BRLFORTALEZA      SOLAR ESTACIONAMENTO L                                                07523ZESTACIONAMENTO DE AUTOMOVEIS  R$ D                          0000000000000               FORTALEZA        00000000000010072503               FORTALEZA         00000000BR 050020230125641700    
1A-3396-0094281     449137993270395800000754135               FRANCISCO DE ASSIS M ALVES     RUA BARAO DO RIO BRANCO                835                 SAO PAULO                   SP04753 00146620605400                 000000000000000000000000000000001500000000000000202712000000002163                     +00000000000000000+00000000000001000000046620605400000000002012112020271231PC   000EVVCG301   
2A-3396-0094281     44913799327039580002489427302424520971588206092023012400000000000000100000000000001000020230301BRLPAULISTA       PAULISTA NORTH WAY SER                                                07394ZALUGUEIS DE AQUIPAMENTOS,MOBILR$ D                          0000000000000               PAULISTA         00000000000000000000               PAULISTA          00000000BR 050020230125644956    
1A-3396-0094281     449137993288246300000754135               ALEXANDER JOSE DA SILVA       RUA BARAO DO RIO BRANCO                 835                 SAO PAULO                   SP04753 00175301830600                 000000000000000000000000000000001500000000000000202305000000002391                     +00000000000000000+00000000000003775000075301830600000000002013051320230531PC   000EVVCG301   
2A-3396-0094281     44913799328824630002483044302400014706100606092023012400000000000000035000000000000350020230301BRLCONTAGEM       LAYLA VARIEDADES LTDA                                                 05651ZLOJAS DE ROUPAS PARA ADULTOS ER$ D                          0000000000000               CONTAGEM         00000000000010068372               CONTAGEM          00000000BR 050020230125682858    
2A-3396-0094281     44913799328824630002483044302400025867972906092023012400000000000000017500000000000175020230301BRLCONTAGEM       LAYLA VARIEDADES LTDA                                                 05651ZLOJAS DE ROUPAS PARA ADULTOS ER$ D                          0000000000000               CONTAGEM         00000000000010068372               CONTAGEM          00000000BR 050020230125631392    
2A-3396-0094281     44913799328824630002485085302424451518810906092023012400000000000000120000000000001200020230301BRLBETIM          PAG*FlavioAmaral53648                                                 07523ZESTACIONAMENTO DE AUTOMOVEIS  R$ D                          0000000000000               BETIM            00000000000010074215               BETIM             00000000BR 050020230125623025    
2A-3396-0094281     44913799328824630002419895302423119995569606092023012400000000000000052500000000000525020230301BRLBELO HORIZONT  FS ESTACIONAMENTO                                                     07523ZESTACIONAMENTO DE AUTOMOVEIS  R$ D                          0000000000000               BELO HORIZONT    00000000000010072503               BELO HORIZONT     00000000BR 050020230125613553    
2A-3396-0094281     44913799328824630002448768302442601100567906092023012400000000000000100000000000001000020230301BRLCONTAGEM       LUCIANO ANDRE MESQUITA                       00079340393368           08111ZOUTROS                        R$ D                          0000000000000               CONTAGEM         00000000000010037169               CONTAGEM          00000000BR 050020230125610523    
2A-3396-0094281     44913799328824630002419895302423126774440206092023012400000000000000052500000000000525020230301BRLBELO HORIZONT  FS ESTACIONAMENTO                                                     07523ZESTACIONAMENTO DE AUTOMOVEIS  R$ D                          0000000000000               BELO HORIZONT    00000000000010072503               BELO HORIZONT     00000000BR 050020230125602478    
1A-3396-0094281     449137993288248900000754135               ALEXANDRE DIAS DE CASTRO      RUA BARAO DO RIO BRANCO                 835                 SAO PAULO                   SP04753 00151961873672                 000000000000000000000000000000001500000000000000202306000000002921                     +00000000000000000+00000000000005118000051961873672000000002013051320230630PC   000EVVCG301   
2A-3396-0094281     44913799328824890002419895302423123253319506092023012400000000000000511800000000005118020230301BRLITAUNA         GULA LANCHES CONGELADO                                                05499ZACOUGUE MERC FRUTOS DO MAR ALIR$ D                          0000000000000               ITAUNA           00000000000010072503               ITAUNA            00000000BR 050020230125621319    
1A-3396-0094281     449137993288270300000754135               CARLOS MARCONNY DE OLIVEI     RUA BARAO DO RIO BRANCO                 835                 SAO PAULO                   SP04753 00104551832448                 000000000000000000000000000000001500000000000000202305000000003144                     +00000000000000000+00000000000005248000004551832448000000002013051320230531PC   000EVVCG301   
2A-3396-0094281     44913799328827030002483044302400035896996206092023012400000000000000524800000000005248020230301BRLPALMARES       CONVENIENCIA TREVAO                                                   05499ZACOUGUE MERC FRUTOS DO MAR ALIR$ D                          0000000000000               PALMARES         00000000000010068372               PALMARES          00000000BR 050020230125641160    
1A-3396-0094281     449137993288271100000754135               CIDALIA VALESCA DE MENDON     RUA BARAO DO RIO BRANCO                 835                 SAO PAULO                   SP04753 00103387093713                 000000000000000000000000000000004200000000000000202305000000002940                     +00000000000000000+00000000000004400000003387093713000000002013051320230531PC   000EVVCG301   
2A-3396-0094281     44913799328827110002419895302423124501366406092023012400000000000000230000000000002300020230301BRLRIO DE JANEIR  SITO S ESTACIONAMENTO                                                 07299ZAPARTAMENTOS, PREDIOS         R$ D                          0000000000000               RIO DE JANEIR    00000000000010072503               RIO DE JANEIR     00000000BR 050020230125682236    
2A-3396-0094281     44913799328827110002483044302400014892758506092023012400000000000000210000000000002100020230301BRLRIO DE JANEIR  BOXPARK ESTACIONAMENTO                                                07523ZESTACIONAMENTO DE AUTOMOVEIS  R$ D                          0000000000000               RIO DE JANEIR    00000000000010068372               RIO DE JANEIR     00000000BR 050020230125602066    
1A-3396-0094281     449137993288278600000754135               CLAUDIO NOGUEIRA DA SILVA     RUA BARAO DO RIO BRANCO                 835                 SAO PAULO                   SP04753 00101784707759                 000000000000000000000000000000001500000000000000202305000000003024                     +00000000000000000+00000000000007500000001784707759000000002013051320230531PC   000EVVCG301   
2A-3396-0094281     44913799328827860002419895302423123728920706092023012400000000000000200000000000002000020230301BRLSAO PAULO      PG *TON FREE PARK                                                     05965ZCOMBINACAO DE ESTAB VENDA POR R$ D                          0000000000000               SAO PAULO        00000000000010072503               SAO PAULO         00000000BR 050020230125670438    
2A-3396-0094281     44913799328827860002483044302400036922792106092023012400000000000000550000000000005500020230301BRLMACAE          RESTAURANTE                                                           05812FRESTAURANTES                  R$ D                          0000000000000               MACAE            00000000000010068372               MACAE             00000000BR 050020230125661813    
1A-3396-0094281     449137993288289300000754135               DJALMA CARVALHO DE BELLI      RUA BARAO DO RIO BRANCO                 835                 SAO PAULO                   SP04753 00185950580753                 000000000000000000000000000000001500000000000000202305000000003026                     +00000000000000000+00000000000027900000085950580753000000002013051320230531PC   000EVVCG301   
2A-3396-0094281     44913799328828930002483044302400012132488306092023012400000000000002000000000000020000020230301BRLSAO JOAO DEL   POUSADA BECO DO BISPO                                                 07011DHOTEIS,POUSADAS ETC           R$ D                          0000000000000               SAO JOAO DEL     00000000000010068372               SAO JOAO DEL      00000000BR 050020230125612940    
2A-3396-0094281     44913799328828930002417938302430306424224606092023012400000000000000250000000000002500020230301BRLBARBACENA      BARRA PARK                                                            07523ZESTACIONAMENTO DE AUTOMOVEIS  R$ D                          0000000000000               BARBACENA        00000000000000000000               BARBACENA         00000000BR 050020230125672085    
2A-3396-0094281     44913799328828930002419895302423131111779506092023012500000000000000540000000000005400020230301BRLBARBACENA      HAKUNA BATATA BBCNA                                                   05814FRESTAURANTES                  R$ D                          0000000000000               BARBACENA        00000000000010072503               BARBACENA         00000000BR 050020230125633619    
1A-3396-0094281     449137993288299200000754135               ELLERY ARRUDA BRAGA           RUA BARAO DO RIO BRANCO                 835                 SAO PAULO                   SP04753 00191053358415                 000000000000000000000000000000001500000000000000202305000000002316                     +00000000000000000+00000000000085716000091053358415000000002013051320230531PC   000EVVCG301   
2A-3396-0094281     44913799328829920002448768302444900032170906092023012400000000000000541200000000005412020230301BRLNATAL          RESTAURANTE MANGAI                           03247760000196           05812FRESTAURANTES                  R$ D                          0000000000000               NATAL            00000000000010008741               NATAL             00000000BR 050020230125623606    
2A-3396-0094281     44913799328829920002483044302400029442652306092023012400000000000000230000000000002300020230301BRLNATAL          IBIS NATAL                                                            03533DHOTEIS IBIS                   R$ D                          0000000000000               NATAL            00000000000010068372               NATAL             00000000BR 050020230125633741    
2A-3396-0094281     44913799328829920002483044302400017567346606092023012400000000000007800400000000078004020230301BRLNATAL          IBIS NATAL                                                            03533DHOTEIS IBIS                   R$ D                          0000000000000               NATAL            00000000000010068372               NATAL             00000000BR 050020230125661448    
1A-3396-0094281     449137993288331300000754135               GUTEMBERG WAGNER SALDANHA     RUA BARAO DO RIO BRANCO                 835                 SAO PAULO                   SP04753 00144101180300                 000000000000000000000000000000001500000000000000202305000000003086                     +00000000000000000+00000000000005400000044101180300000000002013051320230531PC   000EVVCG301   
2A-3396-0094281     44913799328833130002485085302424456089331406092023012400000000000000540000000000005400020230301BRLIGUATU         PAG*FranciscaIolandaF                                                 08999ZSERVICOS PROFICIONAIS         R$ D                          0000000000000               IGUATU           00000000000010074215               IGUATU            00000000BR 050020230125623868    
1A-3396-0094281     449137993288349500000754135               JOSE CLEITON DE OLIVEIRA      RUA BARAO DO RIO BRANCO                 835                 SAO PAULO                   SP04753 00116803175391                 000000000000000000000000000000001500000000000000202306000000002920                     +00000000000000000+00000000000000900000016803175391000000002013051320230630PC   000EVVCG301   
2A-3396-0094281     44913799328834950002483044302400013055858806092023012400000000000000090000000000000900020230301BRLFORTALEZA      VALET SECURITY PARKING                                                07523ZESTACIONAMENTO DE AUTOMOVEIS  R$ D                          0000000000000               FORTALEZA        00000000000010068372               FORTALEZA         00000000BR 050020230125600011    
1A-3396-0094281     449137993288350300000754135               JOSE EDUARDO CARVALHO DE      RUA BARAO DO RIO BRANCO                 835                 SAO PAULO                   SP04753 00121069689653                 000000000000000000000000000000001500000000000000202305000000002317                     +00000000000000000+00000000000003300000021069689653000000002013051320230531PC   000EVVCG301   
2A-3396-0094281     44913799328835030002458949302400201259428306092023012400000000000000080000000000000800020230301BRLJUIZ DE FORA   EST SANTA HELENA II                                                   07523ZESTACIONAMENTO DE AUTOMOVEIS  R$ D                          0000000000000               JUIZ DE FORA     00000000000000000000               JUIZ DE FORA      00000000BR 050020230125612708    
2A-3396-0094281     44913799328835030002483044302400024978324206092023012400000000000000250000000000002500020230301BRLBELO HORIZONT  MASTERPARK LTDA                                                       07523ZESTACIONAMENTO DE AUTOMOVEIS  R$ D                          0000000000000               BELO HORIZONT    00000000000010068372               BELO HORIZONT     00000000BR 050020230125671224    
1A-3396-0094281     449137993288418800000754135               LEANDRO DE FIGUEIREDO BRO     RUA BARAO DO RIO BRANCO                 835                 SAO PAULO                   SP04753 00102140372905                 000000000000000000000000000000001500000000000000202305000000003154                     +00000000000000000+00000000000015200000002140372905000000002013051420230531PC   000EVVCG301   
2A-3396-0094281     44913799328841880002448768302441801028201106092023012400000000000001520000000000015200020230301BRLPAULO LOPES    POSTO DO BOI                                 40052222000172           05541GPOSTOS DE GASOLINA E DERIVADOSR$ D                          0000000000000               PAULO LOPES      00000000000010037169               PAULO LOPES       00000000BR 050020230125691626    
1A-3396-0094281     449137993288420400000754135               LEANDRO GOEBEL                RUA BARAO DO RIO BRANCO                 835                 SAO PAULO                   SP04753 00104061424912                 000000000000000000000000000000001500000000000000202305000000003229                     +00000000000000000+00000000000000800000004061424912000000002013051420230531PC   000EVVCG301   
2A-3396-0094281     44913799328842040002483044302400021402242806092023012400000000000000080000000000000800020230301BRLBLUMENAU       GERMANO S AUTO                                                        07542ZLAVA CARROS                   R$ D                          0000000000000               BLUMENAU         00000000000010068372               BLUMENAU          00000000BR 050020230125662221    
1A-3396-0094281     449137993288433700000754135               LUIZ HENRIQUE DE BARROS B     RUA BARAO DO RIO BRANCO                 835                 SAO PAULO                   SP04753 00175293625691                 000000000000000000000000000000001500000000000000202305000000003330                     +00000000000000000+00000000000000750000075293625691000000002013051420230531PC   000EVVCG301   
2A-3396-0094281     44913799328843370002485085302424451923731606092023012400000000000000075000000000000750020230301BRLCONTAGEM       PAG*UnidadeItauPower                                                  07523ZESTACIONAMENTO DE AUTOMOVEIS  R$ D                          0000000000000               CONTAGEM         00000000000010074215               CONTAGEM          00000000BR 050020230125631862    
1A-3396-0094281     449137993288435200000754135               MANUEL MEIRELLES FAGGION      RUA BARAO DO RIO BRANCO                 835                 SAO PAULO                   SP04753 00100978831071                 000000000000000000000000000000001500000000000000202305000000003090                     +00000000000000000+00000000000005000000000978831071000000002013051420230531PC   000EVVCG301   
2A-3396-0094281     44913799328843520002485085302424455083947506092023012400000000000000500000000000005000020230301BRLCAXIAS DO SUL  PAG*TibolaEstaciona                                                   08999ZSERVICOS PROFICIONAIS         R$ D                          0000000000000               CAXIAS DO SUL    00000000000010074215               CAXIAS DO SUL     00000000BR 050020230125613446    
1A-3396-0094281     449137993288460000000754135               NATALIA REGINA VARGAS SAN     RUA BARAO DO RIO BRANCO                 835                 SAO PAULO                   SP04753 00136164202884                 000000000000000000000000000000001500000000000000202305000000003161                     +00000000000000000+00000000000002800000036164202884000000002013051420230531PC   000EVVCG301   
2A-3396-0094281     44913799328846000002485085302424452235504806092023012400000000000000090000000000000900020230301BRLSAO PAULO      PAG*HpsParking                                                        05947ZARTESAO                       R$ D                          0000000000000               SAO PAULO        00000000000010074215               SAO PAULO         00000000BR 050020230125604055    
2A-3396-0094281     44913799328846000002483044302400021413494206092023012400000000000000190000000000001900020230301BRLSAO PAULO      ESTACION COLUNA DO SUL                                                07523ZESTACIONAMENTO DE AUTOMOVEIS  R$ D                          0000000000000               SAO PAULO        00000000000010068372               SAO PAULO         00000000BR 050020230125690366    
1A-3396-0094281     449137993288463400000754135               PATRICIA CAMPELO PEDROLLI     RUA BARAO DO RIO BRANCO                 835                 SAO PAULO                   SP04753 00158041400272                 000000000000000000000000000000001500000000000000202305000000003127                     +00000000000000000+00000000000010331000058041400272000000002013051420230531PC   000EVVCG301   
2A-3396-0094281     44913799328846340002419895302423125283276606092023012400000000000000495000000000004950020230301BRLACU            S PEDRO COZINHA E CAFE                                                05499ZACOUGUE MERC FRUTOS DO MAR ALIR$ D                          0000000000000               ACU              00000000000010072503               ACU               00000000BR 050020230125610138    
2A-3396-0094281     44913799328846340002426177302415207290011806092023012400000000000000538100000000005381020230301BRLACU            REDE IDEAL 4                                                          05411ZSUPERMERCADOS                 R$ D                          0000000000000               ACU              00000000000010032841               ACU               00000000BR 050020230125650936    
1A-3396-0094281     449137993288468300000754135               PEDRITA KARIM DEPOLLO         RUA BARAO DO RIO BRANCO                 835                 SAO PAULO                   SP04753 00110758980728                 000000000000000000000000000000004200000000000000202306000000003183                     +00000000000000000+00000000000001700000010758980728000000002013051420230630PC   000EVVCG301   
2A-3396-0094281     44913799328846830002448768302442600402175806092023012400000000000000170000000000001700020230301BRLVITORIA        NOVAPARK LOCACAO E SE                        00710451000112           07523ZESTACIONAMENTO DE AUTOMOVEIS  R$ D                          0000000000000               VITORIA          00000000000010037169               VITORIA           00000000BR 050020230125630568    
1A-3396-0094281     449137993288471700000754135               RAIANE ZUBER FERREIRA DA      RUA BARAO DO RIO BRANCO                 835                 SAO PAULO                   SP04753 00127958861893                 000000000000000000000000000000001500000000000000202305000000002609                     +00000000000000000+00000000000027500000027958861893000000002013051420230531PC   000EVVCG301   
2A-3396-0094281     4491379932884717000744913730240000700166740O102023012400000000000000700000000000007000020230301BRLTAUBATE      SPSAQUE BDN BRADESCO                                                    06011ZINST.FINAN,BANCOS,COOP. CRED,PR$ D                          2413508039241AV.CHARLES SCH TAUBATE        SP00000000000010065920               TAUBATE        SP 00000000BR 070820230125613714    
2A-3396-0094281     44913799328847170007449137302509202508033410632023012400000000000002750000000000027500020230301BRL               RETIRADA - PAIS                                                       06011ZINST.FINAN,BANCOS,COOP. CRED,PR$ D                          0000000000000                                00000000000010065920                                 00000000BR 803320230125613714    
2A-3396-0094281     44913799328847170007449137302400079001668109602023012000000000000000700000000000007000020230301BRLSAO PAULO    SPAJUSTE DE SAQUE DEB. C/C                                              00000ZASSITE OPERACIONAL MINIMO     R$ C             00000000000000000000000000               SAO PAULO      SP00000000000010065920               SAO PAULO      SP 00000000BR 79182023012500000Y    
1A-3396-0094281     449137993288481600000754135               SAMANTHA PAULA LEITE          RUA BARAO DO RIO BRANCO                 835                 SAO PAULO                   SP04753 00160006098339                 000000000000000000000000000000001500000000000000202305000000002851                     +00000000000000000+00000000000000700000060006098339000000002013051420230531PC   000EVVCG301   
2A-3396-0094281     44913799328848160002483044302400015502938206092023012400000000000000070000000000000700020230301BRLSAO LUIS       ALIANCE PARK EST                                                      07523ZESTACIONAMENTO DE AUTOMOVEIS  R$ D                          0000000000000               SAO LUIS         00000000000010068372               SAO LUIS          00000000BR 050020230125600310    
1A-3396-0094281     449137993288486500000754135               SERGIO HENRIQUE SILVEIRA      RUA BARAO DO RIO BRANCO                 835                 SAO PAULO                   SP04753 00176598047404                 000000000000000000000000000000001500000000000000202306000000002785                     +00000000000000000+00000000000006845000076598047404000000002013051420230630PC   000EVVCG301   
2A-3396-0094281     44913799328848650002448768302442600517972006092023012400000000000000464500000000004645020230301BRLCARUARU        UNI COMPRA                                   41185455001773           05411ZSUPERMERCADOS                 R$ D                          0000000000000               CARUARU          00000000000010037169               CARUARU           00000000BR 050020230125611075    
2A-3396-0094281     44913799328848650002483044302400014564376306092023012400000000000000070000000000000700020230301BRLRECIFE         SANPARK ESTACIONAMENTO                                                07523ZESTACIONAMENTO DE AUTOMOVEIS  R$ D                          0000000000000               RECIFE           00000000000010068372               RECIFE            00000000BR 050020230125614248    
2A-3396-0094281     44913799328848650002483044302400258895379006092023012400000000000000150000000000001500020230301BRLCARUARU        PAES E DELICIAS                                                       05462ZPADARIAS                      R$ D                          0000000000000               CARUARU          00000000000010068372               CARUARU           00000000BR 050020230125652642    
1A-3396-0094281     449137993288490700000754135               SHEYLA PRANDI                 RUA BARAO DO RIO BRANCO                 835                 SAO PAULO                   SP04753 00125376005844                 000000000000000000000000000000001500000000000000202307000000002329                     +00000000000000000+00000000000027500000025376005844000000002013051420230731PC   000EVVCG301   
2A-3396-0094281     4491379932884907000744913730240000700166900O102023012400000000000000900000000000009000020230301BRLCOTIA        SPSAQUE BDN BRADESCO                                                    06011ZINST.FINAN,BANCOS,COOP. CRED,PR$ D                          8812524019881R.STO.ANT, 2   COTIA          SP00000000000010065920               COTIA          SP 00000000BR 070820230125601659    
2A-3396-0094281     44913799328849070007449137302509302508033210632023012400000000000002750000000000027500020230301BRL               RETIRADA - PAIS                                                       06011ZINST.FINAN,BANCOS,COOP. CRED,PR$ D                          0000000000000                                00000000000010065920                                 00000000BR 803320230125601659    
2A-3396-0094281     44913799328849070007449137302400079001670709602023012000000000000000900000000000009000020230301BRLSAO PAULO    SPAJUSTE DE SAQUE DEB. C/C                                              00000ZASSITE OPERACIONAL MINIMO     R$ C             00000000000000000000000000               SAO PAULO      SP00000000000010065920               SAO PAULO      SP 00000000BR 79182023012500000Y    
1A-3396-0094281     449137993288491500000754135               SILVIO DE SOUZA OLIVEIRA      RUA BARAO DO RIO BRANCO                 835                 SAO PAULO                   SP04753 00103853434770                 000000000000000000000000000000001500000000000000202305000000003432                     +00000000000000000+00000000000000500000003853434770000000002013051420230531PC   000EVVCG301   
2A-3396-0094281     44913799328849150002485085302424451365117306092023012400000000000000050000000000000500020230301BRLVILA VELHA     PAG*StopPark                                                          07523ZESTACIONAMENTO DE AUTOMOVEIS  R$ D                          0000000000000               VILA VELHA       00000000000010074215               VILA VELHA        00000000BR 050020230125620815    
1A-3396-0094281     449137993288495600000754135               STEFANO NOBILI MENZIO RAM     RUA BARAO DO RIO BRANCO                 835                 SAO PAULO                   SP04753 00181356536115                 000000000000000000000000000000001500000000000000202306000000003218                     +00000000000000000+00000000000005000000081356536115000000002013051420230630PC   000EVVCG301   
2A-3396-0094281     44913799328849560002485085302424450410119606092023012400000000000000500000000000005000020230301BRLDOURADOS       PAG*BaraoMarmitaria                                                   05812FRESTAURANTES                  R$ D                          0000000000000               DOURADOS         00000000000010074215               DOURADOS          00000000BR 050020230125680107    
1A-3396-0094281     449137993288501100000754135               TASSO RENAN REIS ESCOBAR      RUA BARAO DO RIO BRANCO                 835                 SAO PAULO                   SP04753 00181059507749                 000000000000000000000000000000001500000000000000202307000000002114                     +00000000000000000+00000000000001400000081059507749000000002013051420230731PC   000EVVCG301   
2A-3396-0094281     44913799328850110002489427302424520072426306092023012400000000000000140000000000001400020230301BRLRIO DE JANEIR  CEZANNE EMPREENDIMENTO                                                07523ZESTACIONAMENTO DE AUTOMOVEIS  R$ D                          0000000000000               RIO DE JANEIR    00000000000000000000               RIO DE JANEIR     00000000BR 050020230125691830    
1A-3396-0094281     449137993288503700000754135               THIAGO DA SILVA SANTOS        RUA BARAO DO RIO BRANCO                 835                 SAO PAULO                   SP04753 00108289937776                 000000000000000000000000000000001500000000000000202305000000003426                     +00000000000000000+00000000000002900000008289937776000000002013051420230531PC   000EVVCG301   
2A-3396-0094281     44913799328850370002489427302424520976681006092023012400000000000000290000000000002900020230301BRLTERESOPOLIS    ESTAPAR SHOP TERESOPOL                                                07523ZESTACIONAMENTO DE AUTOMOVEIS  R$ D                          0000000000000               TERESOPOLIS      00000000000000000000               TERESOPOLIS       00000000BR 050020230125672096    
1A-3396-0094281     449137993288505200000754135               TIAGO DANIA GUINE             RUA BARAO DO RIO BRANCO                 835                 SAO PAULO                   SP04753 00189349296187                 000000000000000000000000000000001500000000000000202305000000003040                     +00000000000000000+00000000000005000000089349296187000000002013051420230531PC   000EVVCG301   
2A-3396-0094281     44913799328850520002489427302424525497217206092023012400000000000000500000000000005000020230301BRLSAO PAULO      ESTAPAR COL SAO LUIS                                                  07523ZESTACIONAMENTO DE AUTOMOVEIS  R$ D                          0000000000000               SAO PAULO        00000000000000000000               SAO PAULO         00000000BR 050020230125681264    
1A-3396-0094281     449137993288511000000754135               VALDECIR FERNANDES DA SIL     RUA BARAO DO RIO BRANCO                 835                 SAO PAULO                   SP04753 00100536734844                 000000000000000000000000000000001500000000000000202305000000002721                     +00000000000000000+00000000000005500000000536734844000000002013051420230531PC   000EVVCG301   
2A-3396-0094281     44913799328851100002485085302424457675462506092023012400000000000000550000000000005500020230301BRLCARAGUATATUBA  PAG*Surfs                                                             05813FBARES,LANCHONETES,BOATES,CLUBER$ D                          0000000000000               CARAGUATATUBA    00000000000010074215               CARAGUATATUBA     00000000BR 050020230125605582    
1A-3396-0094281     449137993290261800000754135               SABRINA CHIGNALIA GASPAROTTO  RUA BARAO DO RIO BRANCO                 835                 SAO PAULO                   SP04753 00135794934859                 000000000000000000000000000000001500000000000000202306000000003776                     +00000000000000000+00000000000118335000035794934859000000002013060720230630PC   000EVVCG301   
2A-3396-0094281     44913799329026180002483044302400029546966206092023012400000000000011833500000000118335020230301BRLCAMPINAS       MERCURE HOTEL CAMPINAS                                                03579DHOTEL MERCURE                 R$ D                          0000000000000               CAMPINAS         00000000000010068372               CAMPINAS          00000000BR 050020230125693722    
1A-3396-0094281     449137993290275800000754135               THAIS DE CASSIA ABRILERI      RUA BARAO DO RIO BRANCO                 835                 SAO PAULO                   SP04753 00133987399899                 000000000000000000000000000000001500000000000000202306000000003793                     +00000000000000000+00000000000001500000033987399899000000002013060720230630PC   000EVVCG301   
2A-3396-0094281     44913799329027580002448768302442600977161306092023012400000000000000150000000000001500020230301BRLSANTO ANDRE    PB ADMINISTRADORA DE                         52636412016977           07523ZESTACIONAMENTO DE AUTOMOVEIS  R$ D                          0000000000000               SANTO ANDRE      00000000000010037169               SANTO ANDRE       00000000BR 050020230125605956    
1A-3396-0094281     449137993296564900000754135               VICTOR QUEIROZ DE MATTOS BRITORUA BARAO DO RIO BRANCO                 835                 SAO PAULO                   SP04753 00199200295304                 000000000000000000000000000000001500000000000000202310000000003823                     +00000000000000000+00000000000001925000099200295304000000002013102520231031PC   000EVVCG301   
2A-3396-0094281     44913799329656490002419895302423126598520506092023012400000000000000105000000000001050020230301BRLFORTALEZA      BESTPARK                                                              07523ZESTACIONAMENTO DE AUTOMOVEIS  R$ D                          0000000000000               FORTALEZA        00000000000010072503               FORTALEZA         00000000BR 050020230125660482    
2A-3396-0094281     44913799329656490002419895302423120088467906092023012400000000000000087500000000000875020230301BRLFORTALEZA      BESTPARK                                                              07523ZESTACIONAMENTO DE AUTOMOVEIS  R$ D                          0000000000000               FORTALEZA        00000000000010072503               FORTALEZA         00000000BR 050020230125660827    
1A-3396-0094281     449137993297212400000754135               RODRIGO DIAS IWASSAKI         RUA BARAO DO RIO BRANCO                 835                 SAO PAULO                   SP04753 00103094674976                 000000000000000000000000000000001500000000000000202311000000003516                     +00000000000000000+00000000000008400000003094674976000000002013111320231130PC   000EVVCG301   
2A-3396-0094281     44913799329721240002419895302423126888555006092023012400000000000000840000000000008400020230301BRLCAMPO MOURAO   PANIF. PAES E CIA                                                     05462ZPADARIAS                      R$ D                          0000000000000               CAMPO MOURAO     00000000000010072503               CAMPO MOURAO      00000000BR 050020230125690898    
1A-3396-0094281     449137993298136400000754135               MARIANA MARTINEZ DA SILVA     RUA BARAO DO RIO BRANCO                 835                 SAO PAULO                   SP04753 00129542974841                 000000000000000000000000000000001500000000000000202305000000003482                     +00000000000000000+00000000000031050000029542974841202201110000000020230531PC   000EVVCG301   
2A-3396-0094281     44913799329813640002448768302443400532793506092023012400000000000003105000000000031050020230301BRLFERNANDOPOLIS  HOTEL FERNANDOPOLIS S.                       23733741000187           07011DHOTEIS,POUSADAS ETC           R$ D                          0000000000000               FERNANDOPOLIS    00000000000010037169               FERNANDOPOLIS     00000000BR 050020230125691720    
1A-3396-0094281     449137993303852900000754135               BRUNO RAFAEL DE SOUZA COUTINHORUA BARAO DO RIO BRANCO                 835                 SAO PAULO                   SP04753 00135775278895                 000000000000000000000000000000001500000000000000202405000000003895                     +00000000000000000+00000000000027500000035775278895000000002014041720240531PC   000EVVCG301   
2A-3396-0094281     4491379933038529000744913730240000700168560O102023012400000000000001200000000000012000020230301BRLSAO PAULO    SPSAQUE BDN BRADESCO                                                    06011ZINST.FINAN,BANCOS,COOP. CRED,PR$ D                          9578094034957AV DOS CAMPAN  SAO PAULO      SP00000000000010065920               SAO PAULO      SP 00000000BR 070820230125685154    
2A-3396-0094281     44913799330385290007449137302509402508033010632023012400000000000002750000000000027500020230301BRL               RETIRADA - PAIS                                                       06011ZINST.FINAN,BANCOS,COOP. CRED,PR$ D                          0000000000000                                00000000000010065920                                 00000000BR 803320230125685154    
2A-3396-0094281     44913799330385290007449137302400079001686309602023012000000000000001200000000000012000020230301BRLSAO PAULO    SPAJUSTE DE SAQUE DEB. C/C                                              00000ZASSITE OPERACIONAL MINIMO     R$ C             00000000000000000000000000               SAO PAULO      SP00000000000010065920               SAO PAULO      SP 00000000BR 79182023012500000Y    
1A-3396-0094281     449137993306445900000754135               FELIPE CORTE REAL             RUA BARAO DO RIO BRANCO                 835                 SAO PAULO                   SP04753 00105990392990                 000000000000000000000000000000001500000000000000202406000000003956                     +00000000000000000+00000000000003600000005990392990000000002014061220240630PC   000EVVCG301   
2A-3396-0094281     44913799330644590002419895302423121445433706092023012400000000000000160000000000001600020230301BRLFLORIANOPOLIS  BRECHO IRMAO JOAQUIM                                                  08641ZASSOCIACOES CIVICAS,FRATERNAISR$ D                          0000000000000               FLORIANOPOLIS    00000000000010072503               FLORIANOPOLIS     00000000BR 050020230125601677    
2A-3396-0094281     44913799330644590002448768302442600581525706092023012400000000000000120000000000001200020230301BRLFLORIANOPOLIS  SUPERMERCADOS IMPERATR                       82956160004080           05411ZSUPERMERCADOS                 R$ D                          0000000000000               FLORIANOPOLIS    00000000000010037169               FLORIANOPOLIS     00000000BR 050020230125681583    
2A-3396-0094281     44913799330644590002419895302423124923856406092023012400000000000000080000000000000800020230301BRLFLORIANOPOLIS  BRECHO IRMAO JOAQUIM                                                  08641ZASSOCIACOES CIVICAS,FRATERNAISR$ D                          0000000000000               FLORIANOPOLIS    00000000000010072503               FLORIANOPOLIS     00000000BR 050020230125685760    
1A-3396-0094281     449137993310682100000754135               WAGNER JOSE DE SOUZA          RUA BARAO DO RIO BRANCO                 835                 SAO PAULO                   SP04753 00106660426671                 000000000000000000000000000000001500000000000000202309000000004007                     +00000000000000000+00000000000005400000006660426671000000002014091120230930PC   000EVVCG301   
2A-3396-0094281     44913799331068210002426271302400078070060806092023012300000000000000540000000000005400020230301BRLRESPLENDOR     RESPLENDOR CENTER HOTEL                                               07011DHOTEIS,POUSADAS ETC           R$ D                          0000000000000               RESPLENDOR       00000000000000000000               RESPLENDOR        00000000BR 050020230125675597    
1A-3396-0094281     449137993310967600000754135               DANUBIA GOMES WOOLLEY RAMOS   RUA BARAO DO RIO BRANCO                 835                 SAO PAULO                   SP04753 00103948623414                 000000000000000000000000000000001500000000000000202309000000004009                     +00000000000000000+00000000000001150000003948623414000000002014091620230930PC   000EVVCG301   
2A-3396-0094281     44913799331096760002448768302442600398440206092023012400000000000000115000000000001150020230301BRLRECIFE         MOBILIDADE RECIFE PARK                       15768762000100           07523ZESTACIONAMENTO DE AUTOMOVEIS  R$ D                          0000000000000               RECIFE           00000000000010037169               RECIFE            00000000BR 050020230125621368    
1A-3396-0094281     449137993316567800000754135               INALDO DE ARAUJO VIEIRA       RUA BARAO DO RIO BRANCO                 835                 SAO PAULO                   SP04753 00192430872404                 000000000000000000000000000000001500000000000000202402000000004074                     +00000000000000000+00000000000005024000092430872404000000002015020220240228PC   000EVVCG301   
2A-3396-0094281     44913799331656780002483044302400028605426706092023012400000000000000168900000000001689020230301BRLGARANHUNS      MERCEARIA DO PAO                                                      05462ZPADARIAS                      R$ D                          0000000000000               GARANHUNS        00000000000010068372               GARANHUNS         00000000BR 050020230125600204    
2A-3396-0094281     44913799331656780002485085302424450978802106092023012400000000000000333500000000003335020230301BRLGARANHUNS      PAG*ClecioGeraldo                                                     05812FRESTAURANTES                  R$ D                          0000000000000               GARANHUNS        00000000000010074215               GARANHUNS         00000000BR 050020230125653432    
1A-3396-0094281     449137993316572800000754135               RONNIE CHRISTIAN DA ROCHA COSTRUA BARAO DO RIO BRANCO                 835                 SAO PAULO                   SP04753 00105530477607                 000000000000000000000000000000001500000000000000202402000000004068                     +00000000000000000+00000000000013400000005530477607000000002015020220240228PC   000EVVCG301   
2A-3396-0094281     44913799331657280002417938302430306064556606092023012400000000000000120000000000001200020230301BRLDIVINOPOLIS    HOTEL VERONA TOWER                                                    07011DHOTEIS,POUSADAS ETC           R$ D                          0000000000000               DIVINOPOLIS      00000000000000000000               DIVINOPOLIS       00000000BR 050020230125662587    
2A-3396-0094281     44913799331657280002423428302400588001747106092023012400000000000000720000000000007200020230301BRLPAR DE MINAS   MERCADOPAGO*GRANDPARK                                                 05099ZBENS DURAVEIS                 R$ D                          0000000000000               PAR DE MINAS     00000000000000454367               PAR DE MINAS      00000000BR 050020230125675148    
2A-3396-0094281     44913799331657280002417938302430307066797206092023012400000000000000500000000000005000020230301BRLDIVINOPOLIS    HOTEL VERONA TOWER                                                    07011DHOTEIS,POUSADAS ETC           R$ D                          0000000000000               DIVINOPOLIS      00000000000000000000               DIVINOPOLIS       00000000BR 050020230125695998    
1A-3396-0094281     449137993320165500000754135               ANALISSA DE CASTRO DANTAS     RUA BARAO DO RIO BRANCO                 835                 SAO PAULO                   SP04753 00132737272840                 000000000000000000000000000000001500000000000000202306000000003759                     +00000000000000000+00000000000027500000032737272840202201110000000020230630PC   000EVVCG301   
2A-3396-0094281     44913799332016550007449137302509502508033710632023012400000000000002750000000000027500020230301BRL               RETIRADA - PAIS                                                       06011ZINST.FINAN,BANCOS,COOP. CRED,PR$ D                          0000000000000                                00000000000010065920                                 00000000BR 803320230125672342    
2A-3396-0094281     4491379933201655000744913730240000700169550O102023012400000000000000300000000000003000020230301BRLTUPA         SPSAQUE BDN BRADESCO                                                    06011ZINST.FINAN,BANCOS,COOP. CRED,PR$ D                          4229202060422AV.TAMOIOS, 68 TUPA           SP00000000000010065920               TUPA           SP 00000000BR 070820230125672342    
2A-3396-0094281     44913799332016550007449137302400079001696209602023012000000000000000300000000000003000020230301BRLSAO PAULO    SPAJUSTE DE SAQUE DEB. C/C                                              00000ZASSITE OPERACIONAL MINIMO     R$ C             00000000000000000000000000               SAO PAULO      SP00000000000010065920               SAO PAULO      SP 00000000BR 79182023012500000Y    
1A-3396-0094281     449137993320301600000754135               PAULA CANDEA MACIEL LUZ       RUA BARAO DO RIO BRANCO                 835                 SAO PAULO                   SP04753 00199958422387                 000000000000000000000000000000001500000000000000202407000000002763                     +00000000000000000+00000000000003400000099958422387202201110000000020240731PC   000EVVCG301   
2A-3396-0094281     44913799332030160002489427302424517066832606092023012400000000000000150000000000001500020230301BRLFORTALEZA      TERR SANTOS DUMONT                                                    07523ZESTACIONAMENTO DE AUTOMOVEIS  R$ D                          0000000000000               FORTALEZA        00000000000000000000               FORTALEZA         00000000BR 050020230125635746    
2A-3396-0094281     44913799332030160002448768302442600959330606092023012400000000000000100000000000001000020230301BRLFORTALEZA      FJJ ADMINISTRACAO DE                         22524341000107           07523ZESTACIONAMENTO DE AUTOMOVEIS  R$ D                          0000000000000               FORTALEZA        00000000000010037169               FORTALEZA         00000000BR 050020230125654988    
2A-3396-0094281     44913799332030160002485085302424447055207506092023012400000000000000090000000000000900020230301BRLFORTALEZA      PAG*MDeFatimaCordeiro                                                 07523ZESTACIONAMENTO DE AUTOMOVEIS  R$ D                          0000000000000               FORTALEZA        00000000000010074215               FORTALEZA         00000000BR 050020230125690189    
1A-3396-0094281     449137993321875800000754135               NATANY MEIRA DA LUZ           RUA BARAO DO RIO BRANCO                 835                 SAO PAULO                   SP04753 00107134048926                 000000000000000000000000000000001500000000000000202406000000004136                     +00000000000000000+00000000000005500000007134048926000000002015060320240630PC   000EVVCG301   
2A-3396-0094281     44913799332187580002423065302430304689577506092023012400000000000000550000000000005500020230301BRLGUARAPUAVA     KM                                                                    05812FRESTAURANTES                  R$ D                          0000000000000               GUARAPUAVA       00000000000000000000               GUARAPUAVA        00000000BR 050020230125690384    
1A-3396-0094281     449137993323459900000754135               ROBERTA CORREA BARDAO         RUA BARAO DO RIO BRANCO                 835                 SAO PAULO                   SP04753 00129671468896                 000000000000000000000000000000001500000000000000202309000000003815                     +00000000000000000+00000000000004800000029671468896202201110000000020230930PC   000EVVCG301   
2A-3396-0094281     44913799332345990002483044302400016402616306092023012400000000000000200000000000002000020230301BRLSANTOS         ESTACIONAMENTO GONZAGA                                                07523ZESTACIONAMENTO DE AUTOMOVEIS  R$ D                          0000000000000               SANTOS           00000000000010068372               SANTOS            00000000BR 050020230125635796    
2A-3396-0094281     44913799332345990002489427302424523189702106092023012400000000000000280000000000002800020230301BRLSANTOS         ESTAPAR HOSP ANA COSTA                                                07523ZESTACIONAMENTO DE AUTOMOVEIS  R$ D                          0000000000000               SANTOS           00000000000000000000               SANTOS            00000000BR 050020230125660205    
1A-3396-0094281     449137993325477900000754135               OSVALDO LEANDRO FERREIRA ROCHARUA BARAO DO RIO BRANCO                 835                 SAO PAULO                   SP04753 00134549605847                 000000000000000000000000000000001500000000000000202408000000004145                     +00000000000000000+00000000000014400000034549605847000000002015080420240831PC   000EVVCG301   
2A-3396-0094281     44913799332547790002419895302423126778727806032023012400104000000000750000000000007500020230301BRLSAO PAULO      MEDICARE FARMACIA                                                     05912ZFARMACIAS                     R$ D                          0000000000000               SAO PAULO        00000000000010072503               SAO PAULO         00000000BR 050320230125652579    
2A-3396-0094281     44913799332547790002483044302400017787818806092023012400000000000000440000000000004400020230301BRLSAO PAULO      WIN PARK FARIA LIMA                                                   07523ZESTACIONAMENTO DE AUTOMOVEIS  R$ D                          0000000000000               SAO PAULO        00000000000010068372               SAO PAULO         00000000BR 050020230125653706    
2A-3396-0094281     44913799332547790002419895302423125914799406092023012400000000000000250000000000002500020230301BRLSAO PAULO      MIG PARK ESTACIONAMENT                                                07523ZESTACIONAMENTO DE AUTOMOVEIS  R$ D                          0000000000000               SAO PAULO        00000000000010072503               SAO PAULO         00000000BR 050020230125673645    
1A-3396-0094281     449137993328479200000754135               WILIAM DAL BOSCO              RUA BARAO DO RIO BRANCO                 835  .              SAO PAULO                   SP04753 00105081225975     20242       000000000000000000000000000000001500000000000000202806000000004588                     +00000000000000000+00000000000002000000005081225975000000002017062220280630PC   000EVVCG301   
2A-3396-0094281     44913799332847920002485085302424454270511506092023012400000000000000200000000000002000020230301BRLFLORIANOPOLIS  PAG*TopPark                                                           07523ZESTACIONAMENTO DE AUTOMOVEIS  R$ D                          0000000000000               FLORIANOPOLIS    00000000000010074215               FLORIANOPOLIS     00000000BR 050020230125630486    
1A-3396-0094281     449137993328570800000754135               LEONARDO DE ALMEIDA FERRE     RUA BARAO DO RIO BRANCO                 835                 SAO PAULO                   SP04753 00103546382625                 000000000000000000000000000000001500000000000000202305202301233023                     +00000000000000000-00000000000000500000003546382625202301230000000020230531PCSFF331EVVCG301   
2A-3396-0094281     44913799332857080002494619236500006660754109642022123100000000000000050000000000000500020230301BRL               AJUSTE A CREDITO                                                      00000ZASSITE OPERACIONAL MINIMO     R$ C                          0000000000000                                00000000000000000000                                 00000000   796420230125663460    
1A-3396-0094281     449137993329545900000754135               HEGLY BRUNO DE MESQUITA CHAVESRUA BARAO DO RIO BRANCO                 835                 SAO PAULO                   SP04753 00105593258783     20210       000000000000000000000000000000000000000000000000202710000000006255                     +00000000000000000+00000000000004660000005593258783000000002022101420271031PC   000EVVCG301   
2A-3396-0094281     44913799332954590002489427302424515391901906092023012400000000000000173000000000001730020230301BRLRIO BONITO     CONCESSIONARIA RODOVIA                                                04784KPEDAGIOS E TAXAS-PONTES E TRAVR$ D                          0000000000000               RIO BONITO       00000000000000000000               RIO BONITO        00000000BR 050020230125601221    
2A-3396-0094281     44913799332954590002483044302400022881550206092023012400000000000000120000000000001200020230301BRLITABORAI       CONSORCIO SHOPPING ITA                                                06513ZOUTROS                        R$ D                          0000000000000               ITABORAI         00000000000010068372               ITABORAI          00000000BR 050020230125610672    
2A-3396-0094281     44913799332954590002489427302424520798671706092023012400000000000000173000000000001730020230301BRLRIO BONITO     CONCESSIONARIA RODOVIA                                                04784KPEDAGIOS E TAXAS-PONTES E TRAVR$ D                          0000000000000               RIO BONITO       00000000000000000000               RIO BONITO        00000000BR 050020230125662605    
1A-3396-0094281     449137993330669400000754135               BRUNA SALVADOR DE CAMARGO     RUA BARAO DO RIO BRANCO                 835                 SAO PAULO                   SP04753 00132234189896     20240       000000000000000000000000000000001500000000000000202401000000004912                     +00000000000000000+00000000000001700000032234189896000000002018122720240131PC   000EVVCG301   
2A-3396-0094281     44913799333066940002483044302400131168073806092023012400000000000000170000000000001700020230301BRLSAO PAULO      ESTAC TREVO                                                           07523ZESTACIONAMENTO DE AUTOMOVEIS  R$ D                          0000000000000               SAO PAULO        00000000000010068372               SAO PAULO         00000000BR 050020230125614703    
1A-3396-0094281     449137993331369000000754135               TIAGO LAZARO DE SOUZA         RUA BARAO DO RIO BRANCO                 835                 SAO PAULO                   SP04753 00107083264635     20241       000000000000000000000000000000001500000000000000202312000000004911                     +00000000000000000+00000000000005400000007083264635000000002018122720231231PC   000EVVCG301   
2A-3396-0094281     44913799333136900002419895302423131548728506092023012500000000000000540000000000005400020230301BRLITAJUBA        BAR DA MARIA                                                          05814FRESTAURANTES                  R$ D                          0000000000000               ITAJUBA          00000000000010072503               ITAJUBA           00000000BR 050020230125624557    
1A-3396-0094281     449137993332556100000754135               BRENO ALVES DE CASTRO         AVENIDA RIO BRANCO                      311  11 ANDAR       RIO DE JANEIRO              RJ20040 90365321383200                 000000000000000000000000000000001500000000000000202802000000004445                     +00000000000000000+00000000000006100000065321383200202203100000000020280228PC   000EVVCG301   
2A-3396-0094281     44913799333255610002456063302430353067663406092023012400000000000000100000000000001000020230301BRLFLORIANOPOLIS  KADOSH PARK ESTACION                                                  07523ZESTACIONAMENTO DE AUTOMOVEIS  R$ D                          0000000000000               FLORIANOPOLIS    00000000000000000000               FLORIANOPOLIS     00000000BR 050020230125624302    
2A-3396-0094281     44913799333255610002448768302441800396037506092023012400000000000000200000000000002000020230301BRLFLORIANOPOLIS  ESTAR ESTACIONAMENTO                         10394378000170           07523ZESTACIONAMENTO DE AUTOMOVEIS  R$ D                          0000000000000               FLORIANOPOLIS    00000000000010037169               FLORIANOPOLIS     00000000BR 050020230125651470    
2A-3396-0094281     44913799333255610002419895302423119792162506092023012400000000000000080000000000000800020230301BRLFLORIANOPOLIS  CACHOEIRA PARK                                                        07523ZESTACIONAMENTO DE AUTOMOVEIS  R$ D                          0000000000000               FLORIANOPOLIS    00000000000010072503               FLORIANOPOLIS     00000000BR 050020230125651896    
2A-3396-0094281     44913799333255610002483044302400631363649706092023012400000000000000230000000000002300020230301BRLFLORIANOPOLIS  BEIRAMAR PARK ESTAC                                                   07523ZESTACIONAMENTO DE AUTOMOVEIS  R$ D                          0000000000000               FLORIANOPOLIS    00000000000010068372               FLORIANOPOLIS     00000000BR 050020230125661419    
1A-3396-0094281     449137993332669200000754135               CRISTIANE MOREIRA CHAGAS VANDERUA BARAO DO RIO BRANCO                 835                 SAO PAULO                   SP04753 00101663297703     20243       000000000000000000000000000000001500000000000000202401000000004907                     +00000000000000000+00000000000003800000001663297703000000002018122720240131PC   000EVVCG301   
2A-3396-0094281     44913799333266920002489427302424521823112906092023012400000000000000380000000000003800020230301BRLRIO DE JANEIR  ESTAPAR BRAD BOTAFOGO                                                 07523ZESTACIONAMENTO DE AUTOMOVEIS  R$ D                          0000000000000               RIO DE JANEIR    00000000000000000000               RIO DE JANEIR     00000000BR 050020230125662155    
1A-3396-0094281     449137993333569300000754135               LIGIA BEATRIZ DE LAGOS NUNES FRUA BARAO DO RIO BRANCO                 835                 SAO PAULO                   SP04753 00189141466420     20244       000000000000000000000000000000001500000000000000202312000000004914                     +00000000000000000+00000000000001350000089141466420000000002018122720231231PC   000EVVCG301   
2A-3396-0094281     44913799333356930002483044302400131505311406092023012400000000000000135000000000001350020230301BRLRECIFE         BOMBAPARK ESTACIONAMEN                                                07523ZESTACIONAMENTO DE AUTOMOVEIS  R$ D                          0000000000000               RECIFE           00000000000010068372               RECIFE            00000000BR 050020230125602508    
1A-3396-0094281     449137993335469400000754135               RAPHAEL FONSECA BESAGIO       RUA BARAO DO RIO BRANCO                 835                 SAO PAULO                   SP04753 00129348663860     20241       000000000000000000000000000000001500000000000000202312000000004922                     +00000000000000000+00000000000001000000029348663860000000002018122720231231PC   000EVVCG301   
2A-3396-0094281     44913799333546940002406465302300113713652906092023012300000000000000100000000000001000020230301BRLJundiai        SUDESTE ESTACIONAMENTOS E                                             07523ZESTACIONAMENTO DE AUTOMOVEIS  R$ D                          0000000000000               Jundiai          00000000000010071762               Jundiai           00000000BR 050020230125672582    
1A-3396-0094281     449137993335569100000754135               LUCAS PINHO LOPES             RUA BARAO DO RIO BRANCO                 835                 SAO PAULO                   SP04753 00101984634569     20244       000000000000000000000000000000001500000000000000202312000000004916                     +00000000000000000+00000000000000300000001984634569000000002018122720231231PC   000EVVCG301   
2A-3396-0094281     44913799333556910002419895302423119238733506092023012400000000000000030000000000000300020230301BRLSALVADOR       SIND. ESTACIONAMENTO                                                  08699ZORG.PROFISSIONAIS,SINDICATOS TR$ D                          0000000000000               SALVADOR         00000000000010072503               SALVADOR          00000000BR 050020230125665744    
1A-3396-0094281     449137993337669700000754135               EDSON VINICIUS DE LIMA        RUA BARAO DO RIO BRANCO                 835                 SAO PAULO                   SP04753 00121488183848     20241       000000000000000000000000000000001500000000000000202312000000004931                     +00000000000000000+00000000000005500000021488183848000000002018122720231231PC   000EVVCG301   
2A-3396-0094281     44913799333766970002489427302424527380596506092023012400000000000000550000000000005500020230301BRLANDRADINA      ESPETO IMPERIAL                                                       05411ZSUPERMERCADOS                 R$ D                          0000000000000               ANDRADINA        00000000000000000000               ANDRADINA         00000000BR 050020230125604027    
1A-3396-0094281     449137993338758700000754135               CIRIO DE LIMA UZEDA           RUA DORIVAL CAIMY                       130  LT 24 25 QD C  LAURO DE FREITAS            BA42703 41088378322572                 000000000000000000000000000000001500000000000000202503000000004249                     +00000000000000000+00000000000000700000088378322572000000002021031820250331PC   000EVVCG301   
2A-3396-0094281     44913799333875870002489427302424522013822106092023012400000000000000070000000000000700020230301BRLCAMACARI       INDIGO                                                                07523ZESTACIONAMENTO DE AUTOMOVEIS  R$ D                          0000000000000               CAMACARI         00000000000000000000               CAMACARI          00000000BR 050020230125610049    
1A-3396-0094281     449137993340358200000754135               RENATA BARBOSA CORREA         RUA BARAO DO RIO BRANCO                 835                 SAO PAULO                   SP04753 00102240331747                 000000000000000000000000000000001500000000000000202502000000004269                     +00000000000000000+00000000000019425000002240331747202201110000000020250228PC   000EVVCG301   
2A-3396-0094281     44913799334035820002489427302424513640026906092023012400000000000001942500000000019425020230301BRLSAO GONCALO    POSTO PENDOTIBA                                                       05541GPOSTOS DE GASOLINA E DERIVADOSR$ D                          0000000000000               SAO GONCALO      00000000000000000000               SAO GONCALO       00000000BR 050020230125670060    
1A-3396-0094281     449137993341469600000754135               MARILEA DE MOURA MACHADO      RUA BARAO DO RIO BRANCO                 835                 SAO PAULO                   SP04753 00108350689781     20243       000000000000000000000000000000001500000000000000202312000000004934                     +00000000000000000+00000000000006400000008350689781000000002018122720231231PC   000EVVCG301   
2A-3396-0094281     44913799334146960002489427302424521409161806092023012400000000000000390000000000003900020230301BRLNITEROI        USA PARK                                                              07523ZESTACIONAMENTO DE AUTOMOVEIS  R$ D                          0000000000000               NITEROI          00000000000000000000               NITEROI           00000000BR 050020230125672245    
2A-3396-0094281     44913799334146960002489427302424515644500406092023012400000000000000250000000000002500020230301BRLNITEROI        ESTAPAR ED COM IOFFICE                                                07523ZESTACIONAMENTO DE AUTOMOVEIS  R$ D                          0000000000000               NITEROI          00000000000000000000               NITEROI           00000000BR 050020230125675753    
1A-3396-0094281     449137993342469500000754135               MIRELA CARNEVALLI GUALTIERONI RUA BARAO DO RIO BRANCO                 835                 SAO PAULO                   SP04753 00126227242845     20240       000000000000000000000000000000001500000000000000202401000000004902                     +00000000000000000+00000000000023400000026227242845000000002018122720240131PC   000EVVCG301   
2A-3396-0094281     44913799334246950002448768302442600466656006092023012400000000000002190000000000021900020230301BRLSANTO ANDRE    LOJAS IPLACE                                 89237911015334           05732ZLOJAS DE MATERIAIS ELETRI EM GR$ D                          0000000000000               SANTO ANDRE      00000000000010037169               SANTO ANDRE       00000000BR 050020230125613582    
2A-3396-0094281     44913799334246950002448768302442600977159706092023012400000000000000150000000000001500020230301BRLSANTO ANDRE    PB ADMINISTRADORA DE                         52636412016977           07523ZESTACIONAMENTO DE AUTOMOVEIS  R$ D                          0000000000000               SANTO ANDRE      00000000000010037169               SANTO ANDRE       00000000BR 050020230125604541    
1A-3396-0094281     449137993473864800000754135               FABIANA MARTINS SILVA         RUA BARAO DO RIO BRANCO                 835                 SAO PAULO                   SP04753 00179298230168     20241       000000000000000000000000000000001500000000000000202801000000004692                     +00000000000000000+00000000000005500000079298230168000000002018012420280131PC   000EVVCG301   
2A-3396-0094281     44913799347386480002407466302424132184826706092023012400000000000000550000000000005500020230301BRLMINEIROS       QUINTAL SUSHI                                                         08299ZESCOLAS E SERVICOS EDUCACIONAIR$ D                          0000000000000               MINEIROS         00000000000010081152               MINEIROS          00000000BR 050020230125692182    
1A-3396-0094281     449137993480795500000754135               CYD AQUINO DE MOURA E SILVA   RUA BARAO DO RIO BRANCO                 835                 SAO PAULO                   SP04753 00166597676491                 000000000000000000000000000000001500000000000000202408000000004167                     +00000000000000000+00000000000049000000066597676491202201110000000020240831PC   000EVVCG301   
2A-3396-0094281     44913799348079550002419895302423130719528406092023012400000000000000550000000000005500020230301BRLARAPIRACA      TUCAS BAR 2                                                           05813FBARES,LANCHONETES,BOATES,CLUBER$ D                          0000000000000               ARAPIRACA        00000000000010072503               ARAPIRACA         00000000BR 050020230125640159    
2A-3396-0094281     44913799348079550002448768302442600633653506092023012400000000000004350000000000043500020230301BRLARAPIRACA      HOTEL SOL NASCENTE                           17756357000105           07011DHOTEIS,POUSADAS ETC           R$ D                          0000000000000               ARAPIRACA        00000000000010037169               ARAPIRACA         00000000BR 050020230125654401    
1A-3396-0094281     449137993487151400000754135               FABIANO JOSE BUENO SANTOS     RUA BARAO DO RIO BRANCO                 835                 SAO PAULO                   SP04753 00106387798639     20210       000000000000000000000000000000002100000000000000202405000000005087                     +00000000000000000+00000000000005030000006387798639000000002019051020240531PC   000EVVCG301   
2A-3396-0094281     44913799348715140002483044302400035126236506092023012400000000000000503000000000005030020230301BRLPASSOS         BBQ SMOKED HOUSE                                                      05812FRESTAURANTES                  R$ D                          0000000000000               PASSOS           00000000000010068372               PASSOS            00000000BR 050020230125610768    
1A-3396-0094281     449137993489944000000754135               BRUNO FERREIRA                RUA BARAO DO RIO BRANCO                 835                 SAO PAULO                   SP04753 00131477337857     20240       000000000000000000000000000000001500000000000000202807000000006187                     +00000000000000000+00000000000030822000031477337857000000002022072220280731PC   000EVVCG301   
2A-3396-0094281     44913799348994400002448768302442600170282206092023012400000000000003082200000000030822020230301BRLSUZANO         RESTAURANTE E PIZZARI                        02748310000114           05812FRESTAURANTES                  R$ D                          0000000000000               SUZANO           00000000000010037169               SUZANO            00000000BR 050020230125620710    
1A-3396-0094281     449137993489990300000754135               JOSE EDUARDO TETEO DE SOUSA   RUA BARAO DO RIO BRANCO                 835                 SAO PAULO                   SP04753 00101045050440                 000000000000000000000000000000001500000000000000202409000000004176                     +00000000000000000+00000000000006099000001045050440000000002015093020240930PC   000EVVCG301   
2A-3396-0094281     44913799348999030002448768302444900143333906092023012400000000000000459900000000004599020230301BRLPAU DOS FERRO  QUEIROZ E URBANO LTDA                        10264170000137           05411ZSUPERMERCADOS                 R$ D                          0000000000000               PAU DOS FERRO    00000000000010008741               PAU DOS FERRO     00000000BR 050020230125632974    
2A-3396-0094281     44913799348999030002448768302444900143331306092023012400000000000000150000000000001500020230301BRLPAU DOS FERRO  QUEIROZ E URBANO LTDA                        10264170000137           05411ZSUPERMERCADOS                 R$ D                          0000000000000               PAU DOS FERRO    00000000000010008741               PAU DOS FERRO     00000000BR 050020230125692299    
1A-3396-0094281     449137993490267300000754135               MATEUS DA CUNHA NOGUEIRA      RUA BARAO DO RIO BRANCO                 835                 SAO PAULO                   SP04753 00122043819852                 000000000000000000000000000000001500000000000000202601000000004483                     +00000000000000000+00000000000003500000022043819852202201110000000020260131PC   000EVVCG301   
2A-3396-0094281     44913799349026730002485085302424450424718906092023012400000000000000350000000000003500020230301BRLRIO CLARO      PAG*Pollyanna                                                         07523ZESTACIONAMENTO DE AUTOMOVEIS  R$ D                          0000000000000               RIO CLARO        00000000000010074215               RIO CLARO         00000000BR 050020230125694726    
1A-3396-0094281     449137993490844900000754135               REGIS DE SOUZA FRANCA         RUA BARAO DO RIO BRANCO                 835                 SAO PAULO                   SP04753 00107408092960     20242       000000000000000000000000000000000000000000000000202807000000006191                     +00000000000000000+00000000000005500000007408092960000000002022072220280731PC   000EVVCG301   
2A-3396-0094281     44913799349084490002419895302423131940110006092023012500000000000000550000000000005500020230301BRLMAFRA          RESTAURANTE VITORINO                                                  05812FRESTAURANTES                  R$ D                          0000000000000               MAFRA            00000000000010072503               MAFRA             00000000BR 050020230125610156    
1A-3396-0094281     449137993496241200000754135               THIAGO HENRIQUE DOS SANTOS    RUA BARAO DO RIO BRANCO                 835                 SAO PAULO                   SP04753 00135727430879     20246       000000000000000000000000000000001500000000000000202507000000005802                     +00000000000000000+00000000000000500000035727430879202201040000000020250731PC   000EVVCG301   
2A-3396-0094281     44913799349624120002419895302423122305152006092023012400000000000000050000000000000500020230301BRLSAO PAULO      PG *TON EMER PARK ES                                                  05965ZCOMBINACAO DE ESTAB VENDA POR R$ D                          0000000000000               SAO PAULO        00000000000010072503               SAO PAULO         00000000BR 050020230125615345    
1A-3396-0094281     449137993496864100000754135               PATRICIA FIGUEIREDO           RUA BARAO DO RIO BRANCO                 835                 SAO PAULO                   SP04753 00118354213854     20240       000000000000000000000000000000001500000000000000202802000000004694                     +00000000000000000+00000000000005700000018354213854000000002018012420280228PC   000EVVCG301   
2A-3396-0094281     44913799349686410002483044302400031064058606092023012400000000000000250000000000002500020230301BRLSAO PAULO      PREGAL PARK                                                           07523ZESTACIONAMENTO DE AUTOMOVEIS  R$ D                          0000000000000               SAO PAULO        00000000000010068372               SAO PAULO         00000000BR 050020230125602016    
2A-3396-0094281     44913799349686410002483044302400630171477706092023012400000000000000170000000000001700020230301BRLSAO PAULO      ESTAC TREVO                                                           07523ZESTACIONAMENTO DE AUTOMOVEIS  R$ D                          0000000000000               SAO PAULO        00000000000010068372               SAO PAULO         00000000BR 050020230125611346    
2A-3396-0094281     44913799349686410002489427302424520032112806092023012400000000000000150000000000001500020230301BRLSAO PAULO      ESTAPAR SHOP CENTER NO                                                07523ZESTACIONAMENTO DE AUTOMOVEIS  R$ D                          0000000000000               SAO PAULO        00000000000000000000               SAO PAULO         00000000BR 050020230125643757    
1A-3396-0094281     449137993498245100000754135               DAYANA DE SOUSA ROSA          RUA BARAO DO RIO BRANCO                 835                 SAO PAULO                   SP04753 00136493194890     20210       000000000000000000000000000000001500000000000000202710000000006247                     +00000000000000000+00000000000007200000036493194890000000002022100720271031PC   000EVVCG301   
2A-3396-0094281     44913799349824510002483044302400030394956406092023012400000000000000720000000000007200020230301BRLPARA DE MINAS  ELAINE MARIA ALVES SIL                                                07523ZESTACIONAMENTO DE AUTOMOVEIS  R$ D                          0000000000000               PARA DE MINAS    00000000000010068372               PARA DE MINAS     00000000BR 050020230125603763    
1A-3396-0094281     449137993498979500000754135               MICHELLE CAMANHO LAMEIRAO     RUA BARAO DO RIO BRANCO                 835                 SAO PAULO                   SP04753 00102108618783                 000000000000000000000000000000001500000000000000202806000000004518                     +00000000000000000+00000000000004799000002108618783000000002017061220280630PC   000EVVCG301   
2A-3396-0094281     44913799349897950002489427302424520863387006092023012400000000000000479900000000004799020230301BRLRIO DE JANEIR  NRJ ESTACIONAMENTOS LT                                                07523ZESTACIONAMENTO DE AUTOMOVEIS  R$ D                          0000000000000               RIO DE JANEIR    00000000000000000000               RIO DE JANEIR     00000000BR 050020230125642872    
1A-3396-0094281     449137993499944800000754135               MARCOS ROBERTO LISCIO DAMASCENRUA BARAO DO RIO BRANCO                 835                 SAO PAULO                   SP04753 00122806357802     20240       000000000000000000000000000000001500000000000000202807000000006190                     +00000000000000000+00000000000004400000022806357802000000002022072220280731PC   000EVVCG301   
2A-3396-0094281     44913799349994480002483044302400016353234406092023012400000000000000170000000000001700020230301BRLSANTOS         PROL PARK                                                             07523ZESTACIONAMENTO DE AUTOMOVEIS  R$ D                          0000000000000               SANTOS           00000000000010068372               SANTOS            00000000BR 050020230125600082    
2A-3396-0094281     44913799349994480002483044302400501192947706092023012400000000000000150000000000001500020230301BRLSANTOS         MAUA PARK                                                             07523ZESTACIONAMENTO DE AUTOMOVEIS  R$ D                          0000000000000               SANTOS           00000000000010068372               SANTOS            00000000BR 050020230125663892    
2A-3396-0094281     44913799349994480002483044302400024097236406092023012400000000000000120000000000001200020230301BRLSANTOS         PROL PARK                                                             07523ZESTACIONAMENTO DE AUTOMOVEIS  R$ D                          0000000000000               SANTOS           00000000000010068372               SANTOS            00000000BR 050020230125695239    
1A-3396-0094281     449137993500745600000754135               JOAO PAULO FERNANDES TELES    RUA BARAO DO RIO BRANCO                 835                 SAO PAULO                   SP04753 00109424376677     20241       000000000000000000000000000000001500000000000000202709000000006238                     +00000000000000000+00000000000012191000009424376677000000002022092220270930PC   000EVVCG301   
2A-3396-0094281     44913799350074560002458949302400201031211806092023012400000000000001139100000000011391020230301BRLUBERLANDIA     DOCE MANIA                                                            05814FRESTAURANTES                  R$ D                          0000000000000               UBERLANDIA       00000000000000000000               UBERLANDIA        00000000BR 050020230125653399    
2A-3396-0094281     44913799350074560002483044302400014467737406092023012400000000000000080000000000000800020230301BRLUBERLANDIA     EUROLATINO EMPREENDI                                                  07523ZESTACIONAMENTO DE AUTOMOVEIS  R$ D                          0000000000000               UBERLANDIA       00000000000010068372               UBERLANDIA        00000000BR 050020230125654112    
1A-3396-0094281     449137993501045000000754135               JULIANA LIMA CARVALHO MAIA    RUA BARAO DO RIO BRANCO                 835                 SAO PAULO                   SP04753 00101421898551     20244       000000000000000000000000000000001500000000000000202801000000004691                     +00000000000000000+00000000000008117000001421898551202210050000000020280131PC   000EVVCG301   
2A-3396-0094281     44913799350104500002489427302424520981517906092023012400000000000000450000000000004500020230301BRLSALVADOR       WELLPARK ED COM VITRAU                                                07523ZESTACIONAMENTO DE AUTOMOVEIS  R$ D                          0000000000000               SALVADOR         00000000000000000000               SALVADOR          00000000BR 050020230125631705    
2A-3396-0094281     44913799350104500002489427302424515348161406092023012400000000000000181700000000001817020230301BRLSALVADOR       ROTA PARK BAHIA ESTACI                                                07523ZESTACIONAMENTO DE AUTOMOVEIS  R$ D                          0000000000000               SALVADOR         00000000000000000000               SALVADOR          00000000BR 050020230125654458    
2A-3396-0094281     44913799350104500002489427302424523236606706092023012400000000000000180000000000001800020230301BRLSALVADOR       ESTAPAR HOSPITAL PORTU                                                07523ZESTACIONAMENTO DE AUTOMOVEIS  R$ D                          0000000000000               SALVADOR         00000000000000000000               SALVADOR          00000000BR 050020230125660448    
1A-3396-0094281     449137993501878400000754135               DANILLO ZACHEU GOMES          RUA BARAO DO RIO BRANCO                 835                 SAO PAULO                   SP04753 00131268801852                 000000000000000000000000000000001500000000000000202805000000004521                     +00000000000000000+00000000000005000000031268801852000000002017042720280531PC   000EVVCG301   
2A-3396-0094281     44913799350187840002489427302424525497177806092023012400000000000000500000000000005000020230301BRLSAO PAULO      ESTAPAR COL SAO LUIS                                                  07523ZESTACIONAMENTO DE AUTOMOVEIS  R$ D                          0000000000000               SAO PAULO        00000000000000000000               SAO PAULO         00000000BR 050020230125675097    
1A-3396-0094281     449137993568552500000754135               TATIANY CAPELAS PAUTA         RUA BARAO DO RIO BRANCO                 835                 SAO PAULO                   SP04753 00122643563832     20240       000000000000000000000000000000001500000000000000202406000000004336                     +00000000000000000+00000000000001200000022643563832000000002019062120240630PC   000EVVCG301   
2A-3396-0094281     44913799356855250002419895302423121962968506092023012400000000000000120000000000001200020230301BRLSANTOS         SANPARK                                                               07523ZESTACIONAMENTO DE AUTOMOVEIS  R$ D                          0000000000000               SANTOS           00000000000010072503               SANTOS            00000000BR 050020230125612594    
1A-3396-0094281     449137993569845200000754135               DANIELA RAMOS CARBONI         RUA BARAO DO RIO BRANCO                 835                 SAO PAULO                   SP04753 00107810315919     20242       000000000000000000000000000000001500000000000000202709000000006236                     +00000000000000000+00000000000011600000007810315919000000002022092220270930PC   000EVVCG301   
2A-3396-0094281     44913799356984520002423065302430302904441706092023012400000000000000150000000000001500020230301BRLITAJAI         V PARKING ESTACIONAMEN                                                08999ZSERVICOS PROFICIONAIS         R$ D                          0000000000000               ITAJAI           00000000000000000000               ITAJAI            00000000BR 050020230125604385    
2A-3396-0094281     44913799356984520002489427302424527872819606092023012400000000000000210000000000002100020230301BRLBALNEARIO CAM  SHOPPING PARK                                                         07523ZESTACIONAMENTO DE AUTOMOVEIS  R$ D                          0000000000000               BALNEARIO CAM    00000000000000000000               BALNEARIO CAM     00000000BR 050020230125611762    
2A-3396-0094281     44913799356984520002489427302424517573259806092023012400000000000000125000000000001250020230301BRLITAJAI         VALLEY SOCCER EMPREEND                                                07523ZESTACIONAMENTO DE AUTOMOVEIS  R$ D                          0000000000000               ITAJAI           00000000000000000000               ITAJAI            00000000BR 050020230125620080    
2A-3396-0094281     44913799356984520002489427302424522835575106092023012400000000000000125000000000001250020230301BRLITAJAI         VALLEY SOCCER EMPREEND                                                07523ZESTACIONAMENTO DE AUTOMOVEIS  R$ D                          0000000000000               ITAJAI           00000000000000000000               ITAJAI            00000000BR 050020230125624925    
2A-3396-0094281     44913799356984520002419895302423130565158506092023012400000000000000550000000000005500020230301BRLBALNEARIO CAM  LIANA RAFAELA                                                         05462ZPADARIAS                      R$ D                          0000000000000               BALNEARIO CAM    00000000000010072503               BALNEARIO CAM     00000000BR 050020230125674444    
1A-3396-0094281     449137993569961700000754135               PATRICIA SOTERO DE ARAUJO OSTIRUA BARAO DO RIO BRANCO                 835                 SAO PAULO                   SP04753 00129434984831                 000000000000000000000000000000001500000000000000202602000000004479                     +00000000000000000+00000000000008200000029434984831202204050000000020260228PC   000EVVCG301   
2A-3396-0094281     44913799356996170002489427302424521814077506092023012400000000000000220000000000002200020230301BRLSAO PAULO      ESTAPAR PEIXOTO GOMIDE                                                07523ZESTACIONAMENTO DE AUTOMOVEIS  R$ D                          0000000000000               SAO PAULO        00000000000000000000               SAO PAULO         00000000BR 050020230125623605    
2A-3396-0094281     44913799356996170002483044302400022853962306092023012400000000000000150000000000001500020230301BRLSAO PAULO      A C PARKING                                                           07523ZESTACIONAMENTO DE AUTOMOVEIS  R$ D                          0000000000000               SAO PAULO        00000000000010068372               SAO PAULO         00000000BR 050020230125651634    
2A-3396-0094281     44913799356996170002483044302400021292496306092023012400000000000000450000000000004500020230301BRLSAO PAULO      GAR SAMPAIO                                                           07523ZESTACIONAMENTO DE AUTOMOVEIS  R$ D                          0000000000000               SAO PAULO        00000000000010068372               SAO PAULO         00000000BR 050020230125674533    
1A-3396-0094281     449137993570454000000754135               VANESSA PULLIG DIAS           RUA BARAO DO RIO BRANCO                 835                 SAO PAULO                   SP04753 00107372734703     20243       000000000000000000000000000000001500000000000000202311000000005267                     +00000000000000000+00000000000004000000007372734703000000002019111920231130PC   000EVVCG301   
2A-3396-0094281     44913799357045400002489427302424521823575706092023012400000000000000400000000000004000020230301BRLRIO DE JANEIR  ESTAPAR LEB ME CENTER                                                 07523ZESTACIONAMENTO DE AUTOMOVEIS  R$ D                          0000000000000               RIO DE JANEIR    00000000000000000000               RIO DE JANEIR     00000000BR 050020230125621626    
1A-3396-0094281     449137993570745100000754135               GUSTAVO PAMPLONA SCHEIDT      RUA BARAO DO RIO BRANCO                 835                 SAO PAULO                   SP04753 00108579445922     20242       000000000000000000000000000000001500000000000000202709000000006237                     +00000000000000000+00000000000001000000008579445922000000002022092220270930PC   000EVVCG301   
2A-3396-0094281     44913799357074510002485085302424451574717706092023012400000000000000100000000000001000020230301BRLFLORIANOPOLIS  PAG*SaoDomingosIlha                                                   07523ZESTACIONAMENTO DE AUTOMOVEIS  R$ D                          0000000000000               FLORIANOPOLIS    00000000000010074215               FLORIANOPOLIS     00000000BR 050020230125672609    
1A-3396-0094281     449137993571343400000754135               FRANCIELI PEREZ DA SILVA      R BARAO DO RIO BRANCO                   835                 SAO PAULO                   SP04753 00122058143892     20246       000000010000000000000000000000001500000000000000202805000000006083                     +00000000000000000+00000000000005500000022058143892000000002022050320280531PC   000EVVCG301   
2A-3396-0094281     44913799357134340002448768302545400041972606092023012400000000000000550000000000005500020230301BRLDOURADOS       TAO MUSIC                                    16368379000127           05811ZFORNECEDORES DE BUFE          R$ D                          0000000000000               DOURADOS         00000000000010037169               DOURADOS          00000000BR 050020230125611995    
1A-3396-0094281     449137993571654400000754135               ROBSON ALVES DE SOUZA         RUA BARAO DO RIO BRANCO                 835                 SAO PAULO                   SP04753 00128528732819     20240       000000000000000000000000000000001500000000000000202311000000005260                     +00000000000000000+00000000000001000000028528732819000000002019111820231130PC   000EVVCG301   
2A-3396-0094281     44913799357165440002483044302400027072540106092023012400000000000000100000000000001000020230301BRLSAO PAULO      RVC PARKING                                                           07523ZESTACIONAMENTO DE AUTOMOVEIS  R$ D                          0000000000000               SAO PAULO        00000000000010068372               SAO PAULO         00000000BR 050020230125673583    
